{
  "_format": "hh-sol-artifact-1",
  "contractName": "Verifier",
  "sourceName": "contracts/Verifier.sol",
  "abi": [
    {
      "constant": true,
      "inputs": [
        {
          "name": "a",
          "type": "uint256[2]"
        },
        {
          "name": "a_p",
          "type": "uint256[2]"
        },
        {
          "name": "b",
          "type": "uint256[2][2]"
        },
        {
          "name": "b_p",
          "type": "uint256[2]"
        },
        {
          "name": "c",
          "type": "uint256[2]"
        },
        {
          "name": "c_p",
          "type": "uint256[2]"
        },
        {
          "name": "h",
          "type": "uint256[2]"
        },
        {
          "name": "k",
          "type": "uint256[2]"
        },
        {
          "name": "input",
          "type": "uint256[1]"
        }
      ],
      "name": "verifyProof",
      "outputs": [
        {
          "name": "r",
          "type": "bool"
        }
      ],
      "payable": false,
      "stateMutability": "view",
      "type": "function"
    }
  ],
  "bytecode": "0x6060604052341561000f57600080fd5b6117fd8061001e6000396000f30060606040526000357c0100000000000000000000000000000000000000000000000000000000900463ffffffff16806385e567d41461003d57600080fd5b341561004857600080fd5b610219600480806040019060028060200260405190810160405280929190826002602002808284378201915050505050919080604001906002806020026040519081016040528092919082600260200280828437820191505050505091908060800190600280602002604051908101604052809291906000905b828210156101045783826040020160028060200260405190810160405280929190826002602002808284378201915050505050815260200190600101906100c2565b5050505091908060400190600280602002604051908101604052809291908260026020028082843782019150505050509190806040019060028060200260405190810160405280929190826002602002808284378201915050505050919080604001906002806020026040519081016040528092919082600260200280828437820191505050505091908060400190600280602002604051908101604052809291908260026020028082843782019150505050509190806040019060028060200260405190810160405280929190826002602002808284378201915050505050919080602001906001806020026040519081016040528092919082600160200280828437820191505050505091905050610233565b604051808215151515815260200191505060405180910390f35b600061023d611574565b6102456115ea565b600060408051908101604052808e600060028110151561026157fe5b602002015181526020018e600160028110151561027a57fe5b6020020151815250836000018190525060408051908101604052808d60006002811015156102a457fe5b602002015181526020018d60016002811015156102bd57fe5b60200201518152508360200181905250604080519081016040528060408051908101604052808e60006002811015156102f257fe5b6020020151600060028110151561030557fe5b602002015181526020018e600060028110151561031e57fe5b6020020151600160028110151561033157fe5b6020020151815250815260200160408051908101604052808e600160028110151561035857fe5b6020020151600060028110151561036b57fe5b602002015181526020018e600160028110151561038457fe5b6020020151600160028110151561039757fe5b6020020151815250815250836040018190525060408051908101604052808b60006002811015156103c457fe5b602002015181526020018b60016002811015156103dd57fe5b6020020151815250836060018190525060408051908101604052808a600060028110151561040757fe5b602002015181526020018a600160028110151561042057fe5b60200201518152508360800181905250604080519081016040528089600060028110151561044a57fe5b6020020151815260200189600160028110151561046357fe5b60200201518152508360a00181905250604080519081016040528088600060028110151561048d57fe5b602002015181526020018860016002811015156104a657fe5b60200201518152508360e0018190525060408051908101604052808760006002811015156104d057fe5b602002015181526020018760016002811015156104e957fe5b60200201518152508360c0018190525060016040518059106105085750595b90808252806020026020018201604052509150600090505b600181101561056557848160018110151561053757fe5b6020020151828281518110151561054a57fe5b90602001906020020181815250508080600101915050610520565b60006105718385610595565b14156105805760019350610585565b600093505b5050509998505050505050505050565b600061059f6115fe565b6105a7611674565b60006105b16107cc565b92508260e001515160018751011415156105ca57600080fd5b60408051908101604052806000815260200160008152509150600090505b855181101561064857610639826106348560e001516001850181518110151561060d57fe5b90602001906020020151898581518110151561062557fe5b90602001906020020151610da0565b610e3a565b915080806001019150506105e8565b61066e828460e00151600081518110151561065f57fe5b90602001906020020151610e3a565b91506106978560000151846000015161068a8860200151610ef5565b610692610f90565b61105a565b15156106a657600193506107c3565b6106cd836020015186604001516106c08860600151610ef5565b6106c8610f90565b61105a565b15156106dc57600293506107c3565b610703856080015184604001516106f68860a00151610ef5565b6106fe610f90565b61105a565b151561071257600393506107c3565b61075e8560c00151846060015161074261073d866107388b600001518c60800151610e3a565b610e3a565b610ef5565b8660a001516107548860800151610ef5565b8a60400151611186565b151561076d57600493506107c3565b6107af61077e838760000151610e3a565b86604001516107908860e00151610ef5565b8660c001516107a28a60800151610ef5565b6107aa610f90565b611186565b15156107be57600593506107c3565b600093505b50505092915050565b6107d46115fe565b604080519081016040528060408051908101604052807f0a4e3d65964fc7e039d827129d22e7a23f30f9006088adef67bee26b27f97a4a81526020017f1616be605c1d997df02c3e12bf254c372b0a6a778ef84ac93219cd569f406443815250815260200160408051908101604052807f0e45c62e65817985e02eb1dbb1b773c18e088958ad4f907cb8612d3fb38075e481526020017f0c55b243010b53a2f9bb6189a582e7e446e498854e22bc636cb7b9921984de1d815250815250816000018190525060408051908101604052807f0dda14f290cd6fef035a1a17f8e8f3e672d5bdee21e7cd2e7ded15d83cfa737081526020017f1c68f34662fcd86dfc97aa09e01a5f7caae34351df3dd7ffed595fe99c751a6f8152508160200181905250604080519081016040528060408051908101604052807f11e95e81e790aa451753379776936a915052e2570d26688ea8fcfe15f8efa4a381526020017f057c4843100a568bc0c92a8c0a6f6955c734c545c6d0064a7b2955218b54e0fd815250815260200160408051908101604052807f2cace06aca2cbf9cb555f4d15a227f27e81f4492cc681e6ec6e590dc9123805481526020017f288c188c55c5c4ac8647e930250472f899b7dc4027c0d1c50a4eed1771bcceb68152508152508160400181905250604080519081016040528060408051908101604052807f2e9793a5f81416bfb5b72b5c7d4b0e0a47c1c3dd90d7d269cc95c242c52ecae581526020017f1db0212e8dcbb74b1e1daf163dc5d49161183f8af4833dd6cdae2c81707f4d70815250815260200160408051908101604052807f2c70afd38b6e442fac994b037672bc905c74fb0683b3814e93a3f28e92fb169b81526020017f2af2f3d0cf4921fc44891a4b82987164f89b3d63880d8e60899a38a150fb7522815250815250816060018190525060408051908101604052807eca82ab8159e94de2e07f36875de3f8a1f6316e5742b871a666dd40008bb5c781526020017f17adbd7c1afce3cbd79bc5ac783caad980f930a90258d9f24a79890046861fa08152508160800181905250604080519081016040528060408051908101604052807f05f547e85a8fb4a73f62571538d2fe2d10d4f41097cb8144f2e704f07338fcad81526020017f1d9650fd1af130373f80d51b75f382a34dee16e3605a35396a0e9053e8015bd0815250815260200160408051908101604052807f2c1a4bf074c9bc8991c53b7cdb1c8f47c4e53a316af032f65d834901ce6376fd81526020017f05068a74182bc447a82de2d0eb7a2440a55a05f9c232b8db8268df6ce7cc664d8152508152508160a00181905250604080519081016040528060408051908101604052807f17fa928c026de38238c69654ee3e572f916ac026ea30129411c81ac64fb82f4e81526020017f0e962702ae7741fe736607925a463f83fae0f946a48402dd7640675a408d5cd3815250815260200160408051908101604052807f010f9db291afea67f1f397849045438d503e37ba4297ecdad7278a01078046f181526020017f070dd2467da1a0cf833545022bf45621aa04adcd044f0f4263680c93ee4a7cca8152508152508160c001819052506002604051805910610c755750595b908082528060200260200182016040528015610cab57816020015b610c9861168e565b815260200190600190039081610c905790505b508160e0018190525060408051908101604052807f2ac4352c29d3171ef139b019d57f8b6317f13c7b2f2928abc04e595683d407ff81526020017f24738f9b1e95dfc0bd50f008a22778c374883282ff702868a3698e5d12a416468152508160e001516000815181101515610d1c57fe5b9060200190602002018190525060408051908101604052807ef2b074248eb3c208320e058b76c8b08d8a2767fee66afcd473b353d04643bd81526020017f17dc7928bb38e9ef710966300771af6c73e28617ef0acb09ddee132b3a1b28698152508160e001516001815181101515610d9057fe5b9060200190602002018190525090565b610da8611674565b610db06116a8565b60008460000151826000600381101515610dc657fe5b6020020181815250508460200151826001600381101515610de357fe5b60200201818152505083826002600381101515610dfc57fe5b60200201818152505060608360808460076107d05a03fa90508060008114610e2357610e25565bfe5b50801515610e3257600080fd5b505092915050565b610e42611674565b610e4a6116d0565b60008460000151826000600481101515610e6057fe5b6020020181815250508460200151826001600481101515610e7d57fe5b6020020181815250508360000151826002600481101515610e9a57fe5b6020020181815250508360200151826003600481101515610eb757fe5b60200201818152505060608360c08460066107d05a03fa90508060008114610ede57610ee0565bfe5b50801515610eed57600080fd5b505092915050565b610efd611674565b60007f30644e72e131a029b85045b68181585d97816a916871ca8d3c208c16d87cfd47905060008360000151148015610f3a575060008360200151145b15610f5d5760408051908101604052806000815260200160008152509150610f8a565b604080519081016040528084600001518152602001828560200151811515610f8157fe5b06830381525091505b50919050565b610f986116f8565b604080519081016040528060408051908101604052807f198e9393920d483a7260bfb731fb5d25f1aa493335a9e71297e485b7aef312c281526020017f1800deef121f1e76426a00665e5c4479674322d4f75edadd46debd5cd992f6ed815250815260200160408051908101604052807f090689d0585ff075ec9e99ad690c3395bc4b313370b38ef355acdadcd122975b81526020017f12c85ea5db8c6deb4aab71808dcb408fe3d1e7690c43d37b4ce6cc0166fa7daa815250815250905090565b600061106461171f565b61106c611733565b600260405180591061107b5750595b9080825280602002602001820160405280156110b157816020015b61109e61168e565b8152602001906001900390816110965790505b50915060026040518059106110c35750595b9080825280602002602001820160405280156110f957816020015b6110e6611747565b8152602001906001900390816110de5790505b5090508682600081518110151561110c57fe5b906020019060200201819052508482600181518110151561112957fe5b906020019060200201819052508581600081518110151561114657fe5b906020019060200201819052508381600181518110151561116357fe5b9060200190602002018190525061117a82826112ee565b92505050949350505050565b600061119061171f565b611198611733565b60036040518059106111a75750595b9080825280602002602001820160405280156111dd57816020015b6111ca61168e565b8152602001906001900390816111c25790505b50915060036040518059106111ef5750595b90808252806020026020018201604052801561122557816020015b611212611747565b81526020019060019003908161120a5790505b5090508882600081518110151561123857fe5b906020019060200201819052508682600181518110151561125557fe5b906020019060200201819052508482600281518110151561127257fe5b906020019060200201819052508781600081518110151561128f57fe5b90602001906020020181905250858160018151811015156112ac57fe5b90602001906020020181905250838160028151811015156112c957fe5b906020019060200201819052506112e082826112ee565b925050509695505050505050565b60008060006112fb6115ea565b600061130561176e565b60008751895114151561131757600080fd5b885195506006860294508460405180591061132f5750595b90808252806020026020018201604052509350600092505b8583101561151c57888381518110151561135d57fe5b9060200190602002015160000151846000600686020181518110151561137f57fe5b9060200190602002018181525050888381518110151561139b57fe5b906020019060200201516020015184600160068602018151811015156113bd57fe5b906020019060200201818152505087838151811015156113d957fe5b906020019060200201516000015160006002811015156113f557fe5b6020020151846002600686020181518110151561140e57fe5b9060200190602002018181525050878381518110151561142a57fe5b9060200190602002015160000151600160028110151561144657fe5b6020020151846003600686020181518110151561145f57fe5b9060200190602002018181525050878381518110151561147b57fe5b9060200190602002015160200151600060028110151561149757fe5b602002015184600460068602018151811015156114b057fe5b906020019060200201818152505087838151811015156114cc57fe5b906020019060200201516020015160016002811015156114e857fe5b6020020151846005600686020181518110151561150157fe5b90602001906020020181815250508280600101935050611347565b602082602087026020870160086107d05a03fa9050806000811461153f57611541565bfe5b5080151561154e57600080fd5b600082600060018110151561155f57fe5b60200201511415965050505050505092915050565b6102406040519081016040528061158961168e565b815260200161159661168e565b81526020016115a3611747565b81526020016115b061168e565b81526020016115bd61168e565b81526020016115ca61168e565b81526020016115d761168e565b81526020016115e461168e565b81525090565b602060405190810160405280600081525090565b61032060405190810160405280611613611747565b815260200161162061168e565b815260200161162d611747565b815260200161163a611747565b815260200161164761168e565b8152602001611654611747565b8152602001611661611747565b815260200161166e611796565b81525090565b604080519081016040528060008152602001600081525090565b604080519081016040528060008152602001600081525090565b6060604051908101604052806003905b60008152602001906001900390816116b85790505090565b6080604051908101604052806004905b60008152602001906001900390816116e05790505090565b60806040519081016040528061170c6117aa565b81526020016117196117aa565b81525090565b602060405190810160405280600081525090565b602060405190810160405280600081525090565b60806040519081016040528061175b6117aa565b81526020016117686117aa565b81525090565b6020604051908101604052806001905b600081526020019060019003908161177e5790505090565b602060405190810160405280600081525090565b60408051908101604052806002905b60008152602001906001900390816117b957905050905600a165627a7a7230582067d13e472f9d74e4dbf8cea86d677f531847317b59108e25aa5818baab089c050029",
  "linkReferences": {},
  "deployedLinkReferences": {}
}